:100000000C942A000C943F000C943F000C943F0089
:100010000C943F000C943F000C943F000C943F0064
:100020000C943F000C943F000C943F000C943F0054
:100030000C943F000C943F000C943F000C943F0044
:100040000C943F000C943F000C943F000C943F0034
:100050000C943F0011241FBECFE5D4E0DEBFCDBF1E
:1000600010E0A0E6B0E0E2E7F8E002C005900D92F3
:10007000AA3AB107D9F70E94FA020C9437040C94FB
:1000800000008130C1F0813018F08230E9F528C0DD
:1000900083E060E040E00E94360183E061E040E000
:1000A0000E94360183E064E040E00E94360183E074
:1000B00065E040E012C083E060E040E00E9436016D
:1000C00083E061E041E00E94360183E064E040E0CB
:1000D0000E94360183E065E041E00E943601089508
:1000E00083E060E041E00E94360183E061E040E0AF
:1000F0000E94360183E064E041E00E94360183E023
:1001000065E040E00E943601089583E060E041E050
:100110000E94C20083E061E041E00E94C20083E0EF
:1001200064E041E00E94C20083E065E041E00E949B
:10013000C20083E062E041E00E94C20083E063E02D
:1001400041E00E94C20083E060E040E00E9436018E
:1001500083E061E040E00E94360183E064E040E03B
:100160000E94360183E065E040E00E94360183E0B2
:1001700062E041E00E94360183E063E041E00E94DA
:1001800036010895843008F070C0683008F06DC002
:10019000813009F1813030F08230B1F1833009F0E3
:1001A00064C04BC0413059F42AB381E090E002C0F2
:1001B000880F991F6A95E2F7282B2ABB08952AB366
:1001C00081E090E002C0880F991F6A95E2F7809560
:1001D00082238ABB0895413059F427B381E090E02F
:1001E00002C0880F991F6A95E2F7282B27BB089554
:1001F00027B381E090E002C0880F991F6A95E2F76B
:100200008095822387BB0895413059F424B381E05F
:1002100090E002C0880F991F6A95E2F7282B24BB53
:10022000089524B381E090E002C0880F991F6A9579
:10023000E2F78095822384BB0895413059F421B3BD
:1002400081E090E002C0880F991F6A95E2F7282BA1
:1002500021BB089521B381E090E002C0880F991F6F
:100260006A95E2F78095822381BB0895843008F077
:1002700070C0683008F06DC0813009F1813030F015
:100280008230B1F1833009F064C04BC0413059F481
:100290002BB381E090E002C0880F991F6A95E2F7C6
:1002A000282B2BBB08952BB381E090E002C0880F70
:1002B000991F6A95E2F7809582238BBB08954130A0
:1002C00059F428B381E090E002C0880F991F6A9525
:1002D000E2F7282B28BB089528B381E090E002C004
:1002E000880F991F6A95E2F78095822388BB08954D
:1002F000413059F425B381E090E002C0880F991F86
:100300006A95E2F7282B25BB089525B381E090E09C
:1003100002C0880F991F6A95E2F78095822385BBFA
:100320000895413059F422B381E090E002C0880F73
:10033000991F6A95E2F7282B22BB089522B381E02A
:1003400090E002C0880F991F6A95E2F7809582239A
:1003500082BB08958430D0F46830C0F4813049F015
:10036000813028F0823039F0833081F406C089B3BF
:1003700005C086B303C083B301C080B390E002C060
:10038000959587956A95E2F78170089580E00895C4
:10039000843080F4813049F0813028F0823039F0A7
:1003A000833041F406C06ABB089567BB089564BBFF
:1003B000089561BB0895843080F4813049F0813024
:1003C00028F0823039F0833041F406C06BBB0895C9
:1003D00068BB089565BB089562BB0895843088F4B6
:1003E000813049F0813028F0823039F0833049F48F
:1003F00006C089B3089586B3089583B3089580B382
:10040000089580E0089586B390E023E0969587955F
:100410002A95E1F78170089586B390E034E09695CF
:1004200087953A95E1F78170089581E063E040E0B7
:100430000E94C20081E063E041E00E94360181E059
:1004400064E040E00E94C20081E064E041E00E947C
:1004500036010895FF920F931F93F82E81E060E01C
:1004600041E00E94360181E061E040E00E943601F7
:100470000AEF10E0C8010197F1F781E062E041E086
:100480000E943601C8010197F1F780E06F2D0E94AC
:10049000DB01C8010197F1F781E062E040E00E94D2
:1004A0003601C8010197F1F71F910F91FF90089550
:1004B0001F93CF93DF93EC0110E003C00E942A0248
:1004C0001F5FFE01E10FF11D80818823B9F7DF91E5
:1004D000CF911F9108950F931F93DF93CF93CDB7C3
:1004E000DEB760970FB6F894DEBF0FBECDBF8E01AA
:1004F0000F5F1F4FB8014AE050E00E94F203C801AD
:100500000E94580260960FB6F894DEBF0FBECDBFB2
:10051000CF91DF911F910F910895FF920F931F9339
:10052000F82E81E060E040E00E94360181E061E069
:1005300040E00E9436010AEF10E0C8010197F1F790
:1005400081E062E041E00E943601C8010197F1F7C5
:1005500080E06F2D0E94DB01C8010197F1F781E077
:1005600062E040E00E943601C8010197F1F71F9157
:100570000F91FF90089581E00E948D0208958130CF
:1005800039F0813050F0823029F0833031F404C0EA
:10059000605C03C0605F01C0605B862F80680E9462
:1005A0008D0208950F931F938A010E94BF02C80114
:1005B0000E9458021F910F91089581E060E041E090
:1005C0000E94C20081E061E041E00E94C20081E03F
:1005D00062E041E00E94C20080E06FEF0E94C8012B
:1005E00088E30E948D028CE00E948D0281E00E94CF
:1005F0008D020895EF92FF920F931F93CF93DF9395
:100600000E94DD020E9485000E94150280E690E0B3
:100610000E94580290E5E92E93ECF92E09E110E0D2
:100620000E94A6030E947F03EC0183E0D695C79544
:100630008A95E1F780E06BE00E94BF02C436D105E5
:1006400020F0CE010E946B0206C0CE010E946B0218
:1006500080E20E942A02C7010197F1F7699770F1C1
:100660000E940302892BB9F40E940C02892B99F491
:1006700081E00E94410081E060E00E94BF0281E7CA
:1006800090E00E94580288E893E1F8013197F1F771
:100690000197D9F7C5CF82E00E94410081E060E078
:1006A0000E94BF0283E890E00E94580288E893E12C
:1006B000F8013197F1F70197D9F7B2CF81E00E94A5
:1006C000410081E060E00E94BF0286E990E00E9464
:1006D000580288E893E1F8013197F1F70197D9F7CB
:1006E0009FCF83E067E041E00E94360185E08A9574
:1006F000F1F783E067E040E00E94360108950E9430
:10070000710308B605FEFDCF46B557B580E288BF38
:1007100081E88EBD08B605FEFDCF66B577B520E24F
:1007200028BF1DBC1CBC1EBC641B750B80E090E088
:1007300028E237E840E050E00E94B10320E834E8C6
:100740004EE150E00E94D003C90108951FBC80E231
:1007500088BF83E067E041E00E94C20081EC8EBD6B
:100760000895629FD001739FF001829FE00DF11DFB
:10077000649FE00DF11D929FF00D839FF00D749F1B
:10078000F00D659FF00D9927729FB00DE11DF91FC7
:10079000639FB00DE11DF91FBD01CF011124089524
:1007A000A1E21A2EAA1BBB1BFD010DC0AA1FBB1F75
:1007B000EE1FFF1FA217B307E407F50720F0A21BE7
:1007C000B30BE40BF50B661F771F881F991F1A9454
:1007D00069F760957095809590959B01AC01BD017E
:1007E000CF010895FB019F01E8944230C4F04532E7
:1007F000B4F44A3029F497FB1EF4909581959F4FED
:10080000642F77270E942304805D8A330CF0895D72
:100810008193CB010097A1F716F45DE2519310820A
:10082000C9010C941304DC01FC01672F719177233B
:10083000E1F7329704C07C916D9370836291AE179B
:10084000BF07C8F30895AA1BBB1B51E107C0AA1F2D
:10085000BB1FA617B70710F0A61BB70B881F991F61
:100860005A95A9F780959095BC01CD010895F8940B
:02087000FFCFB8
:100872002044697374616E63653D20202020636D9E
:10088200005448455245204953204F425354414356
:100892004C45002020204E4F204F42535441434CA0
:1008A200452020202000202020204E4F2057696420
:0A08B2007468202020202020200080
:00000001FF
