S01F000049522073656E736F722077697468204443206D6F746F722E73726563DC
S11300000C942A000C9447000C9447000C9447006D
S11300100C9447000C9447000C9447000C94470040
S11300200C9447000C9447000C9447000C94470030
S11300300C9447000C9447000C9447000C94470020
S11300400C9447000C9447000C9447000C94470010
S11300500C94470011241FBECFE5D8E0DEBFCDBF0E
S113006010E0A0E6B0E0E2E1FAE002C005900D92F3
S1130070A839B107D9F710E0A8E9B0E001C01D9292
S1130080A839B107E1F70E942F030C9407050C94DB
S113009000001FBC80E288BF84E467E041E00E9466
S11300A0060180E18A95F1F700C084E467E040E04E
S11300B00E94060181EC8EBD089508B605FEFDCFB1
S11300C086B597B520E228BF21E82EBD08B605FE07
S11300D0FDCF66B577B520E228BF1DBC1CBC1EBC95
S11300E0681B790B80E090E028E237E840E050E0BC
S11300F00E94B20420E834E84EE150E00E94E50496
S1130100822F932F0895823451F1833420F4813463
S113011009F07BC007C0833409F43EC0843409F07D
S113012074C057C0413069F42AB381E090E0AC0157
S113013002C0440F551F6A95E2F7BA01622B6ABBED
S113014008952AB381E090E0AC0102C0440F551F2A
S11301506A95E2F7BA01609562236ABB089541305B
S113016069F427B381E090E0AC0102C0440F551F4D
S11301706A95E2F7BA01622B67BB089527B381E061
S113018090E0AC0102C0440F551F6A95E2F7BA0132
S11301906095622367BB0895413069F424B381E01C
S11301A090E0AC0102C0440F551F6A95E2F7BA0112
S11301B0622B64BB089524B381E090E0AC0102C0DB
S11301C0440F551F6A95E2F7BA016095622364BB38
S11301D00895413069F421B381E090E0AC0102C09C
S11301E0440F551F6A95E2F7BA01622B61BB08956B
S11301F021B381E090E0AC0102C0440F551F6A9521
S1130200E2F7BA016095622361BB0895823451F12B
S1130210833420F4813409F07BC007C0833409F4AB
S11302203EC0843409F074C057C0413069F42BB324
S113023081E090E0AC0102C0440F551F6A95E2F7DB
S1130240BA01622B6BBB08952BB381E090E0AC0143
S113025002C0440F551F6A95E2F7BA016095622304
S11302606BBB0895413069F428B381E090E0AC01A0
S113027002C0440F551F6A95E2F7BA01622B68BBAE
S1130280089528B381E090E0AC0102C0440F551FEB
S11302906A95E2F7BA016095622368BB089541301C
S11302A069F425B381E090E0AC0102C0440F551F0E
S11302B06A95E2F7BA01622B65BB089525B381E024
S11302C090E0AC0102C0440F551F6A95E2F7BA01F1
S11302D06095622365BB0895413069F422B381E0DF
S11302E090E0AC0102C0440F551F6A95E2F7BA01D1
S11302F0622B62BB089522B381E090E0AC0102C09E
S1130300440F551F6A95E2F7BA016095622362BBF8
S113031008958234F1F0833420F4813409F04FC01D
S113032006C0833441F1843409F049C036C029B38E
S113033081E090E0062E02C0880F991F0A94E2F72C
S113034030E08223932302C0959587956A95E2F75E
S1130350089526B381E090E0062E02C0880F991F0D
S11303600A94E2F730E08223932302C0959587959F
S11303706A95E2F7089523B381E090E0062E02C067
S1130380880F991F0A94E2F730E08223932302C076
S1130390959587956A95E2F7089520B381E090E0FA
S11303A0062E02C0880F991F0A94E2F730E08223D8
S11303B0932302C0959587956A95E2F7089580E0A6
S11303C008958234B9F0833418F48134C9F505C032
S11303D08334E9F08434A1F527C02BB381E090E0A5
S11303E0AC0102C0440F551F6A95E2F7BA016227B7
S11303F06BBB089528B381E090E0AC0102C0440FC8
S1130400551F6A95E2F7BA01622768BB089525B3C0
S113041081E090E0AC0102C0440F551F6A95E2F7F9
S1130420BA01622765BB089522B381E090E0AC0174
S113043002C0440F551F6A95E2F7BA01622762BBF6
S11304400895823461F0833418F4813469F405C06A
S1130450833439F0843441F406C06ABB089567BB21
S1130460089564BB089561BB0895823461F08334B8
S113047018F4813469F405C0833439F0843441F4C8
S113048006C06BBB089568BB089565BB089562BB45
S11304900895823461F0833418F4813471F405C012
S11304A0833439F0843449F406C089B3089586B39B
S11304B0089583B3089580B3089580E00895823445
S11304C051F1833420F4813409F07BC007C08334B4
S11304D009F43EC0843409F074C057C0413069F453
S11304E02BB381E090E0AC0102C0440F551F6A9524
S11304F0E2F7BA01622B6BBB08952BB381E090E065
S1130500AC0102C0440F551F6A95E2F7BA01609529
S113051062236BBB0895413069F428B381E090E015
S1130520AC0102C0440F551F6A95E2F7BA01622B71
S113053068BB089528B381E090E0AC0102C0440F89
S1130540551F6A95E2F7BA016095622368BB089566
S1130550413069F425B381E090E0AC0102C0440F5E
S1130560551F6A95E2F7BA01622B65BB089525B35E
S113057081E090E0AC0102C0440F551F6A95E2F798
S1130580BA016095622365BB0895413069F422B3D2
S113059081E090E0AC0102C0440F551F6A95E2F778
S11305A0BA01622B62BB089522B381E090E0AC01F2
S11305B002C0440F551F6A95E2F7BA0160956223A1
S11305C062BB08956F70823481F0833418F48134EF
S11305D0F1F405C0833479F08434C9F412C08BB3C8
S11305E0807F8BBB8BB3862B8BBB88B3807F88BB10
S11305F088B3862B88BB85B3807F85BB85B3862B68
S113060085BB82B3807F82BB82B3682B62BB0895B3
S11306106295607F823481F0833418F48134F1F47C
S113062005C0833479F08434C9F412C08BB38F705D
S11306308BBB8BB3862B8BBB88B38F7088BB88B383
S1130640862B88BB85B38F7085BB85B3862B85BB12
S113065082B38F7082BB82B3682B62BB08958FEF25
S113066081BB17BA929A939A0E94FC030E94490094
S11306700F2EF0E6EF2EF0E0FF2EF02D0F2EFAE015
S1130680CF2EDD24F02D0F2EFAE6AF2EF0E0BF2E94
S1130690F02D0F2EFDE66F2EF0E07F2EF02D0F2EA5
S11306A0F6E74F2EF0E05F2EF02D0F2EFFE72F2EF2
S11306B0F0E03F2EF02D0F2EFCE88F2EF0E09F2E61
S11306C0F02D0E945D008C011695079516950795EF
S11306D0169507950E948704C7010E947804C801F3
S11306E0B6010E94D104C82F862F805D0E94660443
S11306F08C2F805D0E946604C5010E9478048FE3FC
S113070092E4AFE081509040A040E1F700C00000C7
S113071009311105C8F182E463E00E94890188234C
S113072031F082E464E00E9489018823D1F4919835
S11307309598909A949A0E948704C3010E94780421
S113074082E061E00E949104C2010E9478048FE972
S113075096E8A1E081509040A040E1F700C000007D
S1130760B0CF90989498919A959A0E948704C10169
S11307700E9478048FE996E8A1E081509040A0405F
S1130780E1F700C000009DCF0E948704C4010E94CD
S113079078048FE996E8A1E081509040A040E1F709
S11307A000C000008ECF82E460E041E00E940601B8
S11307B08FE99FE00197F1F700C0000082E460E058
S11307C040E00E9406018FE99FE00197F1F700C025
S11307D000000895682F81E40E94350282E461E0FC
S11307E040E00E9406010E94D3038FEC97E001973A
S11307F0F1F700C0000008958FEF91EEA4E081505E
S11308009040A040E1F700C0000081E460E041E0D6
S11308100E94830081E461E041E00E94830081E45E
S113082062E041E00E94830081E463E041E00E94D1
S1130830830081E464E041E00E94830081E465E098
S113084041E00E94830081E466E041E00E9483006D
S113085081E467E041E00E94830082E460E041E0DB
S11308600E94830082E462E041E00E94830082E40B
S113087061E041E00E94830082E462E040E00E9483
S1130880060188E30E94EA03AFECB7E01197F1F7A1
S113089000C000008EE00E94EA038FEC97E001970D
S11308A0F1F700C0000081E00E94EA03AFE1BEE47A
S11308B01197F1F700C0000086E00E94EA038FEC74
S11308C097E00197F1F700C000000895682F81E4D4
S11308D00E94350282E461E041E00E9406010E9428
S11308E0D3038FEC97E00197F1F700C0000008955F
S11308F0CF93DF93EC018881882331F021960E9405
S1130900660489918823D9F7DF91CF91089581E016
S11309100E94EA038FE19EE40197F1F700C0000012
S11309200895282F2150223070F4613170F4662329
S113093071F0813019F4962F91580AC0823041F435
S1130940962F915405C090E803C090E801C090E848
S1130950892F0E94EA038FEC97E00197F1F700C01A
S113096000000895629FD001739FF001829FE00D03
S1130970F11D649FE00DF11D929FF00D839FF00D1A
S1130980749FF00D659FF00D9927729FB00DE11DC6
S1130990F91F639FB00DE11DF91FBD01CF011124A3
S11309A00895AA1BBB1B51E107C0AA1FBB1FA617B2
S11309B0B70710F0A61BB70B881F991F5A95A9F704
S11309C080959095BC01CD010895A1E21A2EAA1B31
S11309D0BB1BFD010DC0AA1FBB1FEE1FFF1FA217EB
S11309E0B307E407F50720F0A21BB30BE40BF50BE8
S11309F0661F771F881F991F1A9469F76095709571
S1130A00809590959B01AC01BD01CF010895F894A8
S1050A10FFCF12
S1130A1264697374616E63653D00636D0074686537
S1130A227265206973006F62737461636C65004E52
S1130A326F206F62737461636C6573004E6F206420
S10B0A42697374616E636500C1
S9030000FC
