S01F000049522073656E736F722077697468204443206D6F746F722E73726563DC
S11300000C942A000C9447000C9447000C9447006D
S11300100C9447000C9447000C9447000C94470040
S11300200C9447000C9447000C9447000C94470030
S11300300C9447000C9447000C9447000C94470020
S11300400C9447000C9447000C9447000C94470010
S11300500C94470011241FBECFE5D8E0DEBFCDBF0E
S113006010E0A0E6B0E0E4E8F9E002C005900D92EB
S1130070A036B107D9F710E0A0E6B0E001C01D92A8
S1130080A036B107E1F70E942F030C94C0040C942E
S113009000001FBC80E288BF84E467E041E00E9466
S11300A0060180E18A95F1F700C084E467E040E04E
S11300B00E94060181EC8EBD089508B605FEFDCFB1
S11300C086B597B520E228BF21E82EBD08B605FE07
S11300D0FDCF66B577B520E228BF1DBC1CBC1EBC95
S11300E0681B790B80E090E028E237E840E050E0BC
S11300F00E947F0420E834E84EE150E00E949E0410
S1130100822F932F0895823451F1833420F4813463
S113011009F07BC007C0833409F43EC0843409F07D
S113012074C057C0413069F42AB381E090E0AC0157
S113013002C0440F551F6A95E2F7BA01622B6ABBED
S113014008952AB381E090E0AC0102C0440F551F2A
S11301506A95E2F7BA01609562236ABB089541305B
S113016069F427B381E090E0AC0102C0440F551F4D
S11301706A95E2F7BA01622B67BB089527B381E061
S113018090E0AC0102C0440F551F6A95E2F7BA0132
S11301906095622367BB0895413069F424B381E01C
S11301A090E0AC0102C0440F551F6A95E2F7BA0112
S11301B0622B64BB089524B381E090E0AC0102C0DB
S11301C0440F551F6A95E2F7BA016095622364BB38
S11301D00895413069F421B381E090E0AC0102C09C
S11301E0440F551F6A95E2F7BA01622B61BB08956B
S11301F021B381E090E0AC0102C0440F551F6A9521
S1130200E2F7BA016095622361BB0895823451F12B
S1130210833420F4813409F07BC007C0833409F4AB
S11302203EC0843409F074C057C0413069F42BB324
S113023081E090E0AC0102C0440F551F6A95E2F7DB
S1130240BA01622B6BBB08952BB381E090E0AC0143
S113025002C0440F551F6A95E2F7BA016095622304
S11302606BBB0895413069F428B381E090E0AC01A0
S113027002C0440F551F6A95E2F7BA01622B68BBAE
S1130280089528B381E090E0AC0102C0440F551FEB
S11302906A95E2F7BA016095622368BB089541301C
S11302A069F425B381E090E0AC0102C0440F551F0E
S11302B06A95E2F7BA01622B65BB089525B381E024
S11302C090E0AC0102C0440F551F6A95E2F7BA01F1
S11302D06095622365BB0895413069F422B381E0DF
S11302E090E0AC0102C0440F551F6A95E2F7BA01D1
S11302F0622B62BB089522B381E090E0AC0102C09E
S1130300440F551F6A95E2F7BA016095622362BBF8
S113031008958234F1F0833420F4813409F04FC01D
S113032006C0833441F1843409F049C036C029B38E
S113033081E090E0062E02C0880F991F0A94E2F72C
S113034030E08223932302C0959587956A95E2F75E
S1130350089526B381E090E0062E02C0880F991F0D
S11303600A94E2F730E08223932302C0959587959F
S11303706A95E2F7089523B381E090E0062E02C067
S1130380880F991F0A94E2F730E08223932302C076
S1130390959587956A95E2F7089520B381E090E0FA
S11303A0062E02C0880F991F0A94E2F730E08223D8
S11303B0932302C0959587956A95E2F7089580E0A6
S11303C008958234B9F0833418F48134C9F505C032
S11303D08334E9F08434A1F527C02BB381E090E0A5
S11303E0AC0102C0440F551F6A95E2F7BA016227B7
S11303F06BBB089528B381E090E0AC0102C0440FC8
S1130400551F6A95E2F7BA01622768BB089525B3C0
S113041081E090E0AC0102C0440F551F6A95E2F7F9
S1130420BA01622765BB089522B381E090E0AC0174
S113043002C0440F551F6A95E2F7BA01622762BBF6
S11304400895823461F0833418F4813469F405C06A
S1130450833439F0843441F406C06ABB089567BB21
S1130460089564BB089561BB0895823461F08334B8
S113047018F4813469F405C0833439F0843441F4C8
S113048006C06BBB089568BB089565BB089562BB45
S11304900895823461F0833418F4813471F405C012
S11304A0833439F0843449F406C089B3089586B39B
S11304B0089583B3089580B3089580E00895823445
S11304C051F1833420F4813409F07BC007C08334B4
S11304D009F43EC0843409F074C057C0413069F453
S11304E02BB381E090E0AC0102C0440F551F6A9524
S11304F0E2F7BA01622B6BBB08952BB381E090E065
S1130500AC0102C0440F551F6A95E2F7BA01609529
S113051062236BBB0895413069F428B381E090E015
S1130520AC0102C0440F551F6A95E2F7BA01622B71
S113053068BB089528B381E090E0AC0102C0440F89
S1130540551F6A95E2F7BA016095622368BB089566
S1130550413069F425B381E090E0AC0102C0440F5E
S1130560551F6A95E2F7BA01622B65BB089525B35E
S113057081E090E0AC0102C0440F551F6A95E2F798
S1130580BA016095622365BB0895413069F422B3D2
S113059081E090E0AC0102C0440F551F6A95E2F778
S11305A0BA01622B62BB089522B381E090E0AC01F2
S11305B002C0440F551F6A95E2F7BA0160956223A1
S11305C062BB08956F70823481F0833418F48134EF
S11305D0F1F405C0833479F08434C9F412C08BB3C8
S11305E0807F8BBB8BB3862B8BBB88B3807F88BB10
S11305F088B3862B88BB85B3807F85BB85B3862B68
S113060085BB82B3807F82BB82B3682B62BB0895B3
S11306106295607F823481F0833418F48134F1F47C
S113062005C0833479F08434C9F412C08BB38F705D
S11306308BBB8BB3862B8BBB88B38F7088BB88B383
S1130640862B88BB85B38F7085BB85B3862B85BB12
S113065082B38F7082BB82B3682B62BB08958FEF25
S113066081BB17BA84BB929A939A8D9A1DBC1CBC09
S113067083EC99E097BD86BD82E88FBD8BE18EBD8A
S1130680C7EDD0E00CEB10E082E463E00E94890146
S1130690882331F082E464E00E948901882389F48C
S11306A09198A898909A949A82E463E00E948901B0
S11306B08823D1F382E464E00E9489018823A1F3B2
S11306C0E3CF909894989198A8988FE794E8AEE136
S11306D081509040A040E1F700C00000DBBDCABDDE
S11306E0AFE4B3EC1197F1F700C000009098949830
S11306F0919AA89A8FE392E4AFE081509040A04091
S1130700E1F700C000001BBD0ABD8FE79AE1A6E037
S113071081509040A040E1F700C000009098949868
S11307209198A89882E463E00E948901813009F0DD
S1130730ABCF82E464E00E948901813099F3A4CFB5
S113074082E460E041E00E9406018FE99FE00197A6
S1130750F1F700C0000082E460E040E00E9406017E
S11307608FE99FE00197F1F700C000000895682F1A
S113077081E40E94350282E461E040E00E940601C7
S11307800E94A0038FEC97E00197F1F700C00000EE
S113079008958FEF91EEA4E081509040A040E1F7DE
S11307A000C0000081E460E041E00E94830081E435
S11307B061E041E00E94830081E462E041E00E9444
S11307C0830081E463E041E00E94830081E464E00B
S11307D041E00E94830081E465E041E00E948300DF
S11307E081E466E041E00E94830081E467E041E047
S11307F00E94830082E460E041E00E94830082E47E
S113080062E041E00E94830082E461E041E00E94F2
S1130810830082E462E040E00E94060188E30E94D3
S1130820B703AFECB7E01197F1F700C000008EE01A
S11308300E94B7038FEC97E00197F1F700C0000026
S113084081E00E94B703AFE1BEE41197F1F700C065
S1130850000086E00E94B7038FEC97E00197F1F760
S113086000C000000895682F81E40E94350282E4EC
S113087061E041E00E9406010E94A0038FEC97E032
S11308800197F1F700C000000895CF93DF93EC01C6
S11308908881882331F021960E943304899188232A
S11308A0D9F7DF91CF91089581E00E94B7038FE1DA
S11308B09EE40197F1F700C000000895282F21500D
S11308C0223070F4613170F4662371F0813019F4D0
S11308D0962F91580AC0823041F4962F915405C046
S11308E090E803C090E801C090E8892F0E94B70304
S11308F08FEC97E00197F1F700C000000895629F24
S1130900D001739FF001829FE00DF11D649FE00D03
S1130910F11D929FF00D839FF00D749FF00D659F64
S1130920F00D9927729FB00DE11DF91F639FB00D63
S1130930E11DF91FBD01CF0111240895A1E21A2E72
S1130940AA1BBB1BFD010DC0AA1FBB1FEE1FFF1F6F
S1130950A217B307E407F50720F0A21BB30BE40BBF
S1130960F50B661F771F881F991F1A9469F7609506
S11309707095809590959B01AC01BD01CF010895C0
S1070980F894FFCF15
S9030000FC
