S0140000736572766F206D6F746F72322E737265635E
S11300000C942A000C9447000C9447000C9447006D
S11300100C9447000C9447000C9447000C94470040
S11300200C9447000C9447000C9447000C94470030
S11300300C9447000C9447000C9447000C94470020
S11300400C9447000C9447000C9447000C94470010
S11300500C94470011241FBECFE5D8E0DEBFCDBF0E
S113006010E0A0E6B0E0E2E2F1E002C005900D92FB
S1130070A036B107D9F710E0A0E6B0E001C01D92A8
S1130080A036B107E1F70E9449000C948F000C944C
S11300900000889A909A8FEC97E00197F1F700C0DE
S11300A0000090988FEF99E6A8E181509040A0401D
S11300B0E1F700C00000909AA7EBBBE01197F1F7BD
S11300C000C0000090988FEF99E6A8E1815090401D
S11300D0A040E1F700C00000909AAFE9BFE011979B
S11300E0F1F700C0000090988FEF99E6A8E18150E5
S11300F09040A040E1F700C00000909AA7EBBBE05D
S11301001197F1F700C0000090988FEF99E6A8E1ED
S113011081509040A040E1F700C00000BBCFF894AC
S1050120FFCF0B
S9030000FC
