S01700004763634170706C69636174696F6E322E737265635A
S11300000C942A000C9447000C9447000C9447006D
S11300100C9447000C9447000C94FF010C94470087
S11300200C9447000C9447000C9447000C94470030
S11300300C9447000C9447000C9447000C94470020
S11300400C9447000C9447000C9447000C94470010
S11300500C94470011241FBECFE5D8E0DEBFCDBF0E
S113006010E0A0E6B0E0E8ECF7E002C005900D92E5
S1130070A237B107D9F710E0A2E7B0E001C01D92A2
S1130080A837B107E1F70E9449000C94E2030C94ED
S113009000008FB780688FBF0E9494020E945903AA
S11300A080E690E00E94E5020E947303EC0180E088
S11300B06AE00E94FB02C436D10520F0CE010E9402
S11300C01E0306C0CE010E941E0380E20E94B102FC
S11300D08FE493EC0197F1F700C00000E5CF68309E
S11300E008F081C0843008F07EC0813031F1813065
S11300F038F0823009F43EC0833009F074C057C030
S1130100413069F42AB381E090E0AC0102C0440FAD
S1130110551F6A95E2F7BA01622B6ABB08952AB3A8
S113012081E090E0AC0102C0440F551F6A95E2F7EC
S1130130BA01609562236ABB0895413069F427B31C
S113014081E090E0AC0102C0440F551F6A95E2F7CC
S1130150BA01622B67BB089527B381E090E0AC013C
S113016002C0440F551F6A95E2F7BA0160956223F5
S113017067BB0895413069F424B381E090E0AC0199
S113018002C0440F551F6A95E2F7BA01622B64BBA3
S1130190089524B381E090E0AC0102C0440F551FE0
S11301A06A95E2F7BA016095622364BB0895413011
S11301B069F421B381E090E0AC0102C0440F551F03
S11301C06A95E2F7BA01622B61BB089521B381E01D
S11301D090E0AC0102C0440F551F6A95E2F7BA01E2
S11301E06095622361BB0895683008F081C0843053
S11301F008F07EC0813031F1813038F0823009F46A
S11302003EC0833009F074C057C0413069F42BB349
S113021081E090E0AC0102C0440F551F6A95E2F7FB
S1130220BA01622B6BBB08952BB381E090E0AC0163
S113023002C0440F551F6A95E2F7BA016095622324
S11302406BBB0895413069F428B381E090E0AC01C0
S113025002C0440F551F6A95E2F7BA01622B68BBCE
S1130260089528B381E090E0AC0102C0440F551F0B
S11302706A95E2F7BA016095622368BB089541303C
S113028069F425B381E090E0AC0102C0440F551F2E
S11302906A95E2F7BA01622B65BB089525B381E044
S11302A090E0AC0102C0440F551F6A95E2F7BA0111
S11302B06095622365BB0895413069F422B381E0FF
S11302C090E0AC0102C0440F551F6A95E2F7BA01F1
S11302D0622B62BB089522B381E090E0AC0102C0BE
S11302E0440F551F6A95E2F7BA016095622362BB19
S11302F00895683008F040C0843008F03FC0813071
S1130300A1F0813028F08230E9F08330C9F527C0AC
S113031089B390E09C0102C0359527956A95E2F770
S113032081E020FD2EC080E0089586B390E09C011A
S113033002C0359527956A95E2F781E020FD21C03A
S113034080E0089583B390E09C0102C03595279521
S11303506A95E2F781E020FD14C080E0089580B33F
S113036090E09C0102C0359527956A95E2F781E0FB
S113037020FD07C080E0089580E0089580E008959E
S113038080E00895843080F4813049F0813028F091
S1130390823039F0833041F406C06ABB089567BBEC
S11303A0089564BB089561BB0895843080F481305E
S11303B049F0813028F0823039F0833041F406C0AE
S11303C06BBB089568BB089565BB089562BB08952F
S11303D0843088F4813049F0813028F0823039F05B
S11303E0833059F406C089B3089586B3089583B35E
S11303F0089580B3089580E0089580E008951F92E1
S11304000F920FB60F9211242F933F934F935F9344
S11304106F937F938F939F93AF93BF93EF93FF93C8
S1130420E0917200F0917300309709F00995FF9103
S1130430EF91BF91AF919F918F917F916F915F9158
S11304404F913F912F910F900FBE0F901F901895D1
S1130450FC018E988CE08FBD8EB5887F9081892BAE
S11304608EBD8EB591819295990F990F907C8F7B5B
S1130470892B8EBD1DBC1CBC17BC16BC89B7806201
S113048089BF0895909373008093720008959EB578
S11304908295880F880F807C9F7B982B9EBD089542
S11304A086B597B508951DBC1CBC08951FBC1EBC21
S11304B01DBC1CBC17BC16BC89B78F7D89BF0895B1
S11304C0CF93C82F81E060E040E00E94F40081E017
S11304D061E040E00E94F40089EF90E00197F1F7B9
S11304E000C0000081E062E041E00E94F40089EF76
S11304F090E00197F1F700C0000080E06C2F0E94AB
S1130500D50189EF90E00197F1F700C0000081E088
S113051062E040E00E94F40089EF90E00197F1F777
S113052000C00000CF91089581E060E041E00E94A6
S11305306F0081E061E041E00E946F0081E062E0D1
S113054041E00E946F0080E06FEF0E94C20188E3E7
S11305500E9460028CE00E94600281E00E946002BE
S11305600895CF93C82F81E060E041E00E94F40039
S113057081E061E040E00E94F40089EF90E001979F
S1130580F1F700C0000081E062E041E00E94F40065
S113059089EF90E00197F1F700C0000080E06C2F34
S11305A00E94D50189EF90E00197F1F700C00000A7
S11305B081E062E040E00E94F40089EF90E001975E
S11305C0F1F700C00000CF9108950F931F93CF93CC
S11305D08C01FC018081882351F0C0E00E94B102AB
S11305E0CF5FF801EC0FF11D80818823B9F7CF911B
S11305F01F910F910895813039F0813070F082306D
S113060031F0833059F406C0962F905C07C0962FC2
S1130610905F04C0962F905B01C0962F892F80684D
S11306200E9460020895CF93DF93EA010E94FB02C7
S1130630CE010E94E502DF91CF910895CF93DF931D
S1130640CDB7DEB760970FB6F894DEBF0FBECDBF4F
S1130650BE016F5F7F4F4AE050E00E94B103CE01BC
S113066001960E94E50260960FB6F894DEBF0FBEB5
S1130670CDBFDF91CF91089581E00E94600208957B
S1130680809174008F5F80937400813031F40E94F4
S1130690530280E00E9447020895823049F40E9488
S11306A05002909376008093750081E00E94470287
S11306B00895CF93DF9300D0CDB7DEB782E089836E
S11306C081E08A8365E041E00E946F00CE010196DB
S11306D00E94280280E493E00E9442020F900F904F
S11306E0DF91CF91089510927700109274001092C8
S11306F07600109275000E94530281E065E041E0AB
S11307000E94F40083E08A95F1F7000081E065E03F
S113071040E00E94F40080917400823069F480917A
S11307207500909176006AE370E00E949D03862F25
S11307306093770090E00895FFCFAA1BBB1B51E1A3
S113074007C0AA1FBB1FA617B70710F0A61BB70B3D
S1130750881F991F5A95A9F780959095BC01CD01E2
S11307600895FB019F01E8944230C4F04532B4F48B
S11307704A3029F497FB1EF4909581959F4F642F7E
S113078077270E949D03805D8A330CF0895D8193F5
S1130790CB010097A1F716F45DE251931082C901D1
S11307A00C94D203DC01FC01672F71917723E1F7EC
S11307B0329704C07C916D9370836291AE17BF072A
S10B07C0C8F30895F894FFCF7B
S11307C844697374616E63653D2020202020636D45
S10507D800001B
S9030000FC
